:100000000C9465000C944D040C9474040C948D00B5
:100010000C948D000C948D000C948D000C94DE0BD0
:100020000C948D000C948D000C948D000C948D001C
:100030000C948D000C948D000C948D000C948D000C
:100040000C949B040C948D000C94AC070C94DE076C
:100050000C948D000C948D000C948D000C948D00EC
:100060000C948D000C948D0000000008000201002B
:100070000003040700000000000000000102040863
:100080001020408001020408102001020408102002
:10009000040404040404040402020202020203032E
:1000A00003030303000000002300260029000000D2
:1000B0000000250028002B0000000000240027007D
:1000C0002A000200EC030E08F20311241FBECFEF3A
:1000D000D8E0DEBFCDBF12E0A0E0B1E0E6E3F0E2A1
:1000E00002C005900D92A634B107D9F723E0A6E42B
:1000F000B2E001C01D92AF31B207E1F710E0C8ECE9
:10010000D0E004C02297FE010E94C30DC43CD10779
:10011000C9F70E9452080C940E100C94000082E063
:100120000E943E06019751F483E00E943E06209112
:10013000540230915502892B69F409C083E00E9472
:100140003E062091540230915502019719F42F5F19
:100150003F4F02C021503109309355022093540281
:10016000089583E00E943E06019751F482E00E94C8
:100170003E062091540230915502019769F409C05E
:1001800082E00E943E062091540230915502892B54
:1001900019F42F5F3F4F02C02150310930935502AF
:1001A0002093540208958EBD00000DB407FEFDCFCC
:1001B0008EB50895CF93DF93D82FC62F8AE00E9483
:1001C00008066C2F8D2FDF91CF910C9408060F93AA
:1001D0001F93CF93DF93082F162FEA0160E0CA0127
:1001E0000E94DA0082E00E94D300802F0E94D30098
:1001F000812F0E94D30061E0CE010E94DA0062E00C
:1002000070E080E090E0DF91CF911F910F910C940E
:100210001405CF93DF93D62FC42F48E050E0682F0A
:1002200082E30E94E70048E050E06D2F81E30E94E6
:10023000E70048E050E06C2F85E3DF91CF910C940C
:10024000E700CF93DF93D62FC42F48E050E0682F0C
:1002500082E40E94E70048E050E06D2F81E40E94B4
:10026000E70048E050E06C2F85E4DF91CF910C94DB
:10027000E700CF93DF93D62FC42F48E050E0682FDC
:1002800082E50E94E70048E050E06D2F81E50E9482
:10029000E70048E050E06C2F85E5DF91CF910C94AA
:1002A000E70048E050E063E08AE20E94E70048E0AF
:1002B00050E060E989E20E94E70048E050E062E037
:1002C00088E20E94E70080914A02882331F067E1CA
:1002D00071E089E692E00C94AC08089548E050E0A3
:1002E00060E08BE20E94E70080914A02882331F0AF
:1002F00069E371E089E692E00C94AC0808951F93DD
:10030000CF93DF93182FEB0160E0CE010E94DA005B
:1003100083E00E94D300812F0E94D30080E00E94DE
:10032000D300182F61E0CE010E94DA0062E070E095
:1003300080E090E00E94140548E050E060E08CE22C
:100340000E94E700812FDF91CF911F910895CF92F6
:10035000DF92EF92FF920F931F93CF93DF93062FBD
:10036000C3E0D0E048E050E0602F8FE00E94E7005B
:1003700068E070E08EE00E947F01182F0E94E50483
:100380006B017C0160E070E0CB01101791F06938DF
:1003900073418105910594F468E070E08EE00E945D
:1003A0007F01182F0E94E5046C197D098E099F09B1
:1003B000ECCF693873418105910564F080914A0260
:1003C000882331F06AE871E089E692E00E94AC0887
:1003D000219741F680914A02882331F064EB71E065
:1003E00089E692E00E949F0880914A02882339F0B2
:1003F0004AE050E0612F89E692E00E947C098091FA
:100400004A02882371F06DE771E089E692E0DF919E
:10041000CF911F910F91FF90EF90DF90CF900C94B0
:10042000AC08DF91CF911F910F91FF90EF90DF907B
:10043000CF9008951F93CF93DF93182FEB0160E0C7
:10044000CE010E94DA00812F0E94D30061E0CE012C
:100450000E94DA0062E070E080E090E0DF91CF91EE
:100460001F910C941405CF9368E070E080EC0E941B
:100470001A0268E070E08EE00E947F01C82F6CECE9
:1004800071E089E692E00E949F08C7FD07C068E01E
:1004900070E08EE00E947F01C82FF7CF80914A0262
:1004A000882331F061EE71E089E692E00E949F08B6
:1004B00080914A02882341F04AE050E06C2F89E69F
:1004C00092E0CF910C948309CF9108950E9433025A
:1004D0000E9451010E946E0160E080E00C94A7012F
:1004E00026E040E855E260E070E089E692E00E9494
:1004F0004A0710924A0261E087E00E94CF0561E05E
:1005000088E00E94CF0561E08AE00E94CF0560E0AC
:1005100082E00E94CF0560E083E00E94CF0561E0A9
:1005200084E00E94CF0561E087E00E94080661E058
:1005300088E00E94080661E08AE00E940806809137
:100540005E02882399F09FB7F89480915E02813013
:1005500059F48DB380935C022DB380915D02809538
:1005600082238DBB9FBF02C090935C028CE58CBD43
:100570001DBC0E94F6030E94660247E062E080E430
:100580000E94090147E062E080E40E94210147E007
:1005900062E080E40E9439010E94E5046093460213
:1005A00070934702809348029093490241E050E0E3
:1005B0006FE870E080E00E942D0441E050E061EBC4
:1005C00070E081E00E942D0464E670E080E090E03D
:1005D0000E94140561E08EE00E94CF0560E08FE08C
:1005E0000E94CF0520E030E0A9016FE170E08EE0CD
:1005F0000C949A098130910539F08230910531F0DF
:10060000892B29F421E803C022E801C024E868E02E
:1006100070E0822F0C941A020F931F93CF93DF93F5
:100620009B0160910601662379F0F901E15EFD4FBF
:100630009081415051092417350759F51092060150
:1006400021E02093070125C060910701662379F01E
:10065000F901E95EFD4F908141505109241735079A
:10066000C1F41092070121E02093080112C06091AB
:100670000801662371F0F901E15FFD4F908141505F
:1006800051092417350729F41092080121E020931D
:10069000060148E050E0682F892F0E94E70006E03D
:1006A00011E0C0E0D0E0F80181918F01882319F0BA
:1006B000CE010E94FA022196C330D105A1F7DF9145
:1006C000CF911F910F9108950F931F93CF93DF93B5
:1006D0008FE00E9489054AE050E0BC0189E692E083
:1006E0000E945709809152029091530297FF12C0C5
:1006F00010924D0261E084E00E940806809152024F
:100700009091530291958195910990935302809312
:10071000520207C081E080934D0260E084E00E94B5
:100720000806909152028091530290934B0280935D
:100730004C02809154029091550297FF0AC010928A
:10074000500291958195910990935502809354029E
:1007500003C081E080935002909154028091550231
:1007600090934E0280934F0281E0809351020BE4FC
:1007700012E0C0E0D0E047E050E0BE01F801819116
:100780008F010E940C032196C730D105A1F76AE0C2
:1007900070E080E090E00E94140520910D013091FE
:1007A0000E0140910F01509110016091090170916B
:1007B0000A0180910B0190910C010E94C00C609382
:1007C000090170930A0180930B0190930C01DF9152
:1007D000CF911F910F91089569E372E086E592E051
:1007E0000C94A80C86E592E00C943A0CCF93CFB70A
:1007F000F89480915F02811127C0EAE9F0E08491CA
:10080000E6E8F0E09491E82FF0E0EE0FFF1FE854E7
:10081000FF4FA591B4918C91892321F461E08AE086
:100820000E94080661E08AE00E94CF058CB58061D5
:100830008CBD8CB580648CBD61E08DE00E94CF05DD
:1008400061E08BE00E94CF0580915F028F5F809313
:100850005F02CFBFCF91089508958230E8F4E82F6A
:10086000F0E0EE0FFF1FEF5EFE4F7183608381307B
:1008700041F0809169008C7F842B80936900E89A15
:10088000089580916900440F551F440F551F837FC1
:10089000842B80936900E99A08951F920F920FB6F6
:1008A0000F9211242F933F934F935F936F937F93F6
:1008B0008F939F93AF93BF93EF93FF93E0911101B9
:1008C000F09112010995FF91EF91BF91AF919F9126
:1008D0008F917F916F915F914F913F912F910F90E9
:1008E0000FBE0F901F9018951F920F920FB60F9288
:1008F00011242F933F934F935F936F937F938F9325
:100900009F93AF93BF93EF93FF93E0911301F09107
:1009100014010995FF91EF91BF91AF919F918F9134
:100920007F916F915F914F913F912F910F900FBEEB
:100930000F901F9018951F920F920FB60F921124CF
:100940002F933F938F939F93AF93BF9380916102B7
:1009500090916202A0916302B091640230916002B2
:1009600023E0230F2D3720F40196A11DB11D05C0F2
:1009700026E8230F0296A11DB11D209360028093EB
:10098000610290936202A0936302B093640280912B
:10099000650290916602A0916702B091680201968B
:1009A000A11DB11D8093650290936602A09367021A
:1009B000B0936802BF91AF919F918F913F912F911A
:1009C0000F900FBE0F901F9018952FB7F89460915D
:1009D00061027091620280916302909164022FBF64
:1009E00008953FB7F8948091650290916602A091B6
:1009F0006702B091680226B5A89B05C02F3F19F089
:100A00000196A11DB11D3FBF6627782F892F9A2F10
:100A1000620F711D811D911D42E0660F771F881FB7
:100A2000991F4A95D1F708958F929F92AF92BF92E6
:100A3000CF92DF92EF92FF926B017C010E94F10452
:100A40004B015C01C114D104E104F104F1F00E94F6
:100A5000BE0C0E94F104681979098A099B09683E55
:100A600073408105910570F321E0C21AD108E108B5
:100A7000F10888EE880E83E0981EA11CB11CC114F9
:100A8000D104E104F10429F7DDCFFF90EF90DF906E
:100A9000CF90BF90AF909F908F900895789484B539
:100AA000826084BD84B5816084BD85B5826085BD6A
:100AB00085B5816085BDEEE6F0E080818160808350
:100AC000E1E8F0E010828081826080838081816033
:100AD0008083E0E8F0E0808181608083E1EBF0E0FA
:100AE000808184608083E0EBF0E08081816080839E
:100AF000EAE7F0E080818460808380818260808387
:100B00008081816080838081806880831092C100B1
:100B100008958E3008F08E5087702091150190E472
:100B2000299F90011124822B80937C0080917A0070
:100B3000806480937A0080917A0086FDFCCF80915A
:100B400078002091790090E0922B0895833081F015
:100B500028F4813099F08230A1F008958730A9F00F
:100B60008830B9F08430D1F4809180008F7D03C04B
:100B7000809180008F7780938000089584B58F776F
:100B800002C084B58F7D84BD08958091B0008F77B9
:100B900003C08091B0008F7D8093B0000895CF9303
:100BA000DF9390E0FC01E458FF4F2491FC01E057F3
:100BB000FF4F8491882349F190E0880F991FFC0131
:100BC000E854FF4FA591B49182559F4FFC01C59108
:100BD000D4919FB7611108C0F8948C91209582231D
:100BE0008C93888182230AC0623051F4F8948C91EE
:100BF000322F309583238C938881822B888304C085
:100C0000F8948C91822B8C939FBFDF91CF910895A4
:100C10000F931F93CF93DF931F92CDB7DEB7282F8B
:100C200030E0F901E859FF4F8491F901E458FF4F92
:100C30001491F901E057FF4F04910023C9F0882374
:100C400021F069830E94A6056981E02FF0E0EE0F94
:100C5000FF1FE255FF4FA591B4919FB7F8948C9177
:100C6000611103C01095812301C0812B8C939FBF1C
:100C70000F90DF91CF911F910F910895CF93DF9344
:100C8000282F30E0F901E859FF4F8491F901E45829
:100C9000FF4FD491F901E057FF4FC491CC2391F05D
:100CA00081110E94A605EC2FF0E0EE0FFF1FEC551E
:100CB000FF4FA591B4912C912D2381E090E021F478
:100CC00080E002C080E090E0DF91CF910895FC01C8
:100CD000818D228D90E0805C9F4F821B91098F73E4
:100CE00099270895FC01918D828D981731F0828D9E
:100CF000E80FF11D858D90E008958FEF9FEF089527
:100D0000FC01918D828D981761F0828DDF01A80F13
:100D1000B11D5D968C91928D9F5F9F73928F90E035
:100D200008958FEF9FEF089584E098E0892B49F0B4
:100D300080E090E0892B29F00E94040881110C9436
:100D400000000895FC01848DDF01A80FB11DA35A96
:100D5000BF4F2C91848D90E001968F739927848FDB
:100D6000A689B7892C93A089B1898C9180648C93D2
:100D7000938D848D981306C00288F389E02D8081BD
:100D80008F7D80830895CF93DF93EC01888D882336
:100D9000C9F0EA89FB89808185FD05C0A889B989E8
:100DA0008C9186FD0FC00FB607FCF5CF808185FFC3
:100DB000F2CFA889B9898C9185FFEDCFCE010E9431
:100DC000A206E7CFDF91CF910895CF92DF92FF92F5
:100DD0000F931F93CF93DF931F92CDB7DEB76C01B4
:100DE00081E0D60158968C9358975B969C915B97BF
:100DF0005C968C915C97981307C05096ED91FC918E
:100E00005197808185FD2EC0F601038D10E00F5FA4
:100E10001F4F0F731127F02EF601848DF81211C0A9
:100E20000FB607FCF9CFD6015096ED91FC91519782
:100E3000808185FFF1CFC60169830E94A206698186
:100E4000EBCF838DE80FF11DE35AFF4F6083D6018E
:100E50005B960C935B975296ED91FC915397808132
:100E600080620CC0D6015696ED91FC915797608335
:100E70005096ED91FC91519780818064808381E050
:100E800090E00F90DF91CF911F910F91FF90DF9035
:100E9000CF900895BF92CF92DF92EF92FF92CF93BF
:100EA000DF93EC016A017B01B22EE889F98982E0C7
:100EB0008083411581EE580761057105A1F060E05E
:100EC00079E08DE390E0A70196010E94750D215015
:100ED00031094109510956954795379527952115AF
:100EE00080E1380798F0E889F989108260E874E8B1
:100EF0008EE190E0A70196010E94750D2150310905
:100F0000410951095695479537952795EC85FD85FB
:100F10003083EE85FF852083188EEC89FD89B082B1
:100F2000EA89FB89808180618083EA89FB898081ED
:100F300088608083EA89FB89808180688083EA8970
:100F4000FB8980818F7D8083DF91CF91FF90EF902F
:100F5000DF90CF90BF9008951F920F920FB60F921F
:100F600011242F938F939F93EF93FF93E091790236
:100F7000F0917A028081E0917F02F091800282FDFF
:100F800012C09081809182028F5F8F7320918302C3
:100F9000821751F0E0918202F0E0E759FD4F958F02
:100FA0008093820201C08081FF91EF919F918F9188
:100FB0002F910F900FBE0F901F9018951F920F92B8
:100FC0000FB60F9211242F933F934F935F936F931C
:100FD0007F938F939F93AF93BF93EF93FF9389E694
:100FE00092E00E94A206FF91EF91BF91AF919F9175
:100FF0008F917F916F915F914F913F912F910F90C2
:101000000FBE0F901F90189589E692E00E94670628
:1010100021E0892B09F420E0822F089510926C02C0
:1010200010926B0288EE93E0A0E0B0E080936D0236
:1010300090936E02A0936F02B09370028BE292E0E5
:1010400090936A028093690285EC90E09093760217
:101050008093750284EC90E09093780280937702FD
:1010600080EC90E090937A028093790281EC90E09A
:1010700090937C0280937B0282EC90E090937E02BE
:1010800080937D0286EC90E09093800280937F02B3
:1010900010928202109283021092840210928502B2
:1010A000089508950E944E050E9451080E94700202
:1010B000C4E9D6E00E9464032097E1F30E949406FD
:1010C000F9CFCF92DF92EF92FF920F931F93CF93BE
:1010D000DF937C016A01EB0100E010E00C151D05B7
:1010E00071F06991D701ED91FC910190F081E02DB3
:1010F000C7010995892B19F00F5F1F4FEFCFC8016A
:10110000DF91CF911F910F91FF90EF90DF90CF90E3
:1011100008956115710581F0DB010D900020E9F75C
:10112000AD0141505109461B570BDC01ED91FC917B
:101130000280F381E02D099480E090E008950C9402
:101140008908DC01ED91FC910190F081E02D09947A
:1011500067E372E00C9489080F931F93CF93DF939A
:10116000EC010E9489088C01CE010E94A808800F22
:10117000911FDF91CF911F910F9108958F929F92B0
:10118000AF92BF92DF92EF92FF920F931F93CF9394
:10119000DF93CDB7DEB7A1970FB6F894DEBF0FBED1
:1011A000CDBF7C01F42FD52ECB0119A2223008F43B
:1011B0002AE08E010F5D1F4F822E912CA12CB12CA5
:1011C0006F2F7D2DA50194010E94750DF22FD32E56
:1011D000CA01015011096A3014F4E0E301C0E7E3E9
:1011E000E60FD801EC93232B242B252B49F7B801CC
:1011F000C7010E948908A1960FB6F894DEBF0FBE02
:10120000CDBFDF91CF911F910F91FF90EF90DF90B5
:10121000BF90AF909F908F900895CF92DF92EF9202
:10122000FF920F931F93CF93DF93EC016A017B0131
:101230002115310579F4E881F9810190F081E02DE3
:10124000642FDF91CF911F910F91FF90EF90DF906E
:10125000CF9009942A303105E9F477FF1AC06DE286
:101260000E94A1088C0144275527BA014C195D0939
:101270006E097F092AE0CE010E94BE08800F911FEF
:10128000DF91CF911F910F91FF90EF90DF90CF9062
:1012900008952AE0B701A601CE01DF91CF911F91F9
:1012A0000F91FF90EF90DF90CF900C94BE080F93BA
:1012B0001F93CF93DF93EC019A01AB01662757FD93
:1012C0006095762F0E940D098C01CE010E94A8081E
:1012D000800F911FDF91CF911F910F9108952115DC
:1012E000310541F4DC01ED91FC910190F081E02D9C
:1012F000642F09940C94BE089A01462F50E060E0D8
:1013000070E00C946F090F931F93CF93DF93EC0160
:101310009A01462F50E060E070E00E946F098C0156
:10132000CE010E94A808800F911FDF91CF911F91DD
:101330000F9108953F924F925F926F927F928F929A
:101340009F92AF92BF92CF92DF92EF92FF920F9354
:101350001F93CF93DF9300D000D0CDB7DEB78B01C2
:1013600029013A0190911601981721F09F3F09F049
:10137000DAC104C0E2ECF0E0349081C08093160141
:10138000E2ECF0E0E491EF3F09F4CDC1E13031F15E
:10139000E23009F44BC0E11171C014BC15BC94B526
:1013A000926094BD95B5916095BD282F30E0F9010C
:1013B000E057FF4FE491F0E0EE0FFF1FE255FF4FC3
:1013C000459154915093160340931503F901E45845
:1013D000FF4F249120931403312C53C010928000AE
:1013E000109281009091810098609093810090917B
:1013F0008100916090938100282F30E0F901E0573F
:10140000FF4FE491F0E0EE0FFF1FE255FF4F4591D3
:10141000549150930F0340930E03F901E458FF4F8A
:10142000249120930D03332433942BC01092B000E9
:101430001092B1009091B00092609093B0009091A2
:10144000B10091609093B100282F30E0F901E0578E
:10145000FF4FE491F0E0EE0FFF1FE255FF4F459183
:1014600054915093080340930703F901E458FF4F48
:1014700024912093060352E0352E03C03E2E37FC04
:1014800052C161E00E94CF054801A12CB12C832DEF
:101490008D7F09F0C7C060E072E18AE790E0A501A6
:1014A00094010E94970D29833A834B835C836901E1
:1014B0007A0181E0C81AD108E108F1089FEFC91646
:1014C000D104E104F10409F008F49AC060E472E484
:1014D0008FE090E0A50194010E94970D69017A01C7
:1014E000E1E0CE1AD108E108F108F2E03F1219C09C
:1014F0008FEFC816D104E104F10409F008F48AC0A2
:1015000060E970ED83E090E0A50194010E94970DE1
:1015100069017A0191E0C91AD108E108F10883E074
:1015200001C082E0EFEFCE16D104E104F10409F02E
:1015300008F467C068E478EE81E090E0A5019401CA
:101540000E94970D69017A01F1E0CF1AD108E108F4
:10155000F1083320E1F082E038121BC09FEFC9167A
:10156000D104E104F10409F008F4DBC064E274EF93
:1015700080E090E0A50194010E94970D69017A0135
:10158000E1E0CE1AD108E108F10885E003C083E06C
:1015900001C084E0FFEFCF16D104E104F10489F12A
:1015A00080F162E17AE780E090E0A50194010E9479
:1015B000970D69017A0181E0C81AD108E108F108A4
:1015C000311002C084E001C086E09FEFC916D1044B
:1015D000E104F104B1F0A8F0C980DA80EB80FC806E
:1015E0009AE0F594E794D794C7949A95D1F7E1E0FF
:1015F000CE1AD108E108F108332031F087E00BC0A2
:1016000081E0332011F007C085E095B5987F982BD5
:1016100095BD38C082E09091B100987F982B90934F
:10162000B10030C060E072E18AE790E0A50194016A
:101630000E94970D69017A01F1E0CF1AD108E10803
:10164000F108C114D10481E0E806F10488F068E4EF
:1016500078EE81E090E0A50194010E94970D690168
:101660007A0191E0C91AD108E108F10893E001C0BC
:1016700091E0E1E03E1206C080918100887F892BD5
:1016800080938100411451046104710471F0D80108
:10169000AA0FBB1FA30192010E94B60D28EE33E0F2
:1016A00040E050E00E94750D03C02FEF3FEFA9010D
:1016B000F1E03F16A1F082E0381619F1311033C085
:1016C000C7BC20931703309318034093190350931A
:1016D0001A0380916E00826080936E0024C0D092C5
:1016E0008900C09288002093100330931103409327
:1016F00012035093130380916F00826080936F00F8
:1017000012C0C092B3002093090330930A034093A0
:101710000B0350930C0380917000826080937000E3
:1017200002C084E078CF0F900F900F900F90DF9160
:10173000CF911F910F91FF90EF90DF90CF90BF90CE
:10174000AF909F908F907F906F905F904F903F9061
:101750000895813039F018F0823051F008951092D8
:101760006E00089580916F008D7F80936F000895C3
:10177000809170008D7F8093700081E08093B00035
:101780008091B100887F84608093B1001092B30093
:101790000895CF93C82F809116018C1307C0E2ECF7
:1017A000F0E084919FEF9093160101C08FEF0E94AB
:1017B000A90B60E08C2FCF910C9408061F920F921A
:1017C0000FB60F9211242F933F934F935F936F9314
:1017D0007F938F939F93AF93BF93EF93FF938091EA
:1017E000090390910A03A0910B03B0910C03892B7C
:1017F0008A2B8B2B51F190910603E0910703F09116
:1018000008038081892780838091090390910A03CE
:10181000A0910B03B0910C03181619061A061B06AB
:10182000C4F48091090390910A03A0910B03B09135
:101830000C030197A109B1098093090390930A034E
:10184000A0930B03B0930C0304C0809116010E9477
:10185000C90BFF91EF91BF91AF919F918F917F91B4
:101860006F915F914F913F912F910F900FBE0F900D
:101870001F901895FC01808191810C946E0ECF937E
:10188000DF93EC0188819981009711F00E946E0E20
:10189000198218821D821C821B821A82DF91CF91CD
:1018A00008950F931F93CF93DF93EC018B016F5F2C
:1018B0007F4F888199810E94FD0E009731F09983B6
:1018C00088831B830A8381E001C080E0DF91CF9190
:1018D0001F910F910895CF93DF93EC018881998137
:1018E000892B29F08A819B818617970760F4CE01A6
:1018F0000E94510C882341F08C819D81892B19F421
:10190000E881F981108281E0DF91CF910895EF9213
:10191000FF920F931F93CF93DF93EC017B018A011A
:10192000BA010E946B0C811104C0CE010E943F0CD1
:1019300007C01D830C83B701888199810E94D00F55
:10194000CE01DF91CF911F910F91FF90EF900895FD
:10195000FC01118210821382128215821482611599
:10196000710559F0FB0101900020E9F7AF014150EA
:101970005109461B570B0C94870C08950895505835
:10198000BB27AA270ED077C068D030F06DD020F0EA
:1019900031F49F3F11F41EF45DC00EF4E095E7FBB7
:1019A00053C0E92F79D080F3BA1762077307840711
:1019B000950718F071F49EF591C00EF4E0950B2E8A
:1019C000BA2FA02D0B01B90190010C01CA01A00191
:1019D0001124FF27591B99F0593F50F4503E68F1EC
:1019E0001A16F040A22F232F342F4427585FF3CF2D
:1019F000469537952795A795F0405395C9F77EF4FE
:101A00001F16BA0B620B730B840BBAF09150A1F046
:101A1000FF0FBB1F661F771F881FC2F70EC0BA0FCC
:101A2000621F731F841F48F4879577956795B79554
:101A3000F7959E3F08F0B3CF9395880F08F099274C
:101A4000EE0F97958795089597F99F6780E870E066
:101A500060E008959FEF80EC089500240A94161624
:101A6000170618060906089500240A94121613068C
:101A7000140605060895092E0394000C11F488231A
:101A800052F0BB0F40F4BF2B11F460FF04C06F5F36
:101A90007F4F8F4F9F4F089557FD9058440F551F0C
:101AA00059F05F3F71F04795880F97FB991F61F0E0
:101AB0009F3F79F087950895121613061406551F57
:101AC000F2CF4695F1DF08C0161617061806991FC3
:101AD000F1CF86957105610508940895E894BB27B8
:101AE00066277727CB0197F90895A1E21A2EAA1B42
:101AF000BB1BFD010DC0AA1FBB1FEE1FFF1FA217BE
:101B0000B307E407F50720F0A21BB30BE40BF50BBA
:101B1000661F771F881F991F1A9469F76095709543
:101B2000809590959B01AC01BD01CF010895052ED4
:101B300097FB1EF400940E94AE0D57FD07D00E9443
:101B4000750D07FC03D04EF40C94AE0D50954095E6
:101B5000309521953F4F4F4F5F4F08959095809559
:101B6000709561957F4F8F4F9F4F08950E94C70DCD
:101B7000A59F900DB49F900DA49F800D911D1124E1
:101B80000895EE0FFF1F0590F491E02D0994A29F98
:101B9000B001B39FC001A39F700D811D1124911D41
:101BA000B29F700D811D1124911D0895CF93DF9375
:101BB0008230910510F482E090E0E0911D03F091F5
:101BC0001E0320E030E0A0E0B0E0309739F1408122
:101BD000518148175907B8F04817590771F48281A5
:101BE0009381109729F013969C938E9312972CC093
:101BF00090931E0380931D0327C02115310531F0FA
:101C00004217530718F0A901DB0101C0EF019A0147
:101C1000BD01DF010280F381E02DD7CF2115310511
:101C2000F9F0281B390B2430310580F48A819B811F
:101C30006115710521F0FB019383828304C09093A9
:101C40001E0380931D03FE01329644C0FE01E20F85
:101C5000F31F8193919322503109398328833AC02D
:101C600020911B0330911C03232B41F4209102018E
:101C70003091030130931C0320931B03209100013A
:101C8000309101012115310541F42DB73EB7409146
:101C9000040150910501241B350BE0911B03F091C9
:101CA0001C03E217F307A0F42E1B3F0B281739077C
:101CB00078F0AC014E5F5F4F2417350748F04E0FA8
:101CC0005F1F50931C0340931B038193919302C0A9
:101CD000E0E0F0E0CF01DF91CF910895CF93DF9363
:101CE000009709F487C0FC01329713821282C091D9
:101CF0001D03D0911E03209781F420813181280F8C
:101D0000391F80911B0390911C038217930779F56B
:101D1000F0931C03E0931B036DC0DE0120E030E074
:101D2000AE17BF0750F412964D915C9113979D0129
:101D30004115510509F1DA01F3CFB383A283408144
:101D40005181840F951F8A179B0771F48D919C9187
:101D50001197840F951F02969183808312968D911F
:101D60009C911397938382832115310529F4F09375
:101D70001E03E0931D033EC0D9011396FC93EE931E
:101D800012974D915D91A40FB51FEA17FB0779F4E7
:101D900080819181840F951F0296D90111969C93A1
:101DA0008E938281938113969C938E931297E0E099
:101DB000F0E08A819B81009719F0FE01EC01F9CFD8
:101DC000CE01029628813981820F931F20911B0337
:101DD00030911C032817390769F4309729F41092C1
:101DE0001E0310921D0302C013821282D0931C03A3
:101DF000C0931B03DF91CF910895A0E0B0E0E3E032
:101E0000FFE00C94DB0FEC01CB01209719F40E944A
:101E1000D60DB8C0FE01E60FF71F9E012250310912
:101E2000E217F30708F4ACC0D9010D911C9111978A
:101E300006171707B8F00530110508F49FC0A80170
:101E4000445051094617570708F498C00250110929
:101E5000061B170B019311936D937C93CF010E9486
:101E60006E0E8CC05B01A01AB10A4E01800E911E4D
:101E7000A0911D03B0911E03612C712C60E070E0F5
:101E8000109709F449C0A815B905C9F5ED90FC9063
:101E90001197670142E0C40ED11CCA14DB0478F12B
:101EA00047018A189B08640142E0C40ED11C1296B7
:101EB000BC9012971396AC91B5E0CB16D10440F0CC
:101EC000B282A38391828082D9018D939C9309C0B1
:101ED0000E5F1F4F0E0D1F1DF90111830083EB2DA7
:101EE000FA2F6115710531F0DB011396FC93EE9327
:101EF000129744C0F0931E03E0931D033FC06D9101
:101F00007C9111976616770608F43B01BD01129685
:101F10000D90BC91A02DB4CF60911B0370911C0358
:101F200068157905E9F468167906D0F44091000146
:101F3000509101014115510541F44DB75EB76091D3
:101F4000040170910501461B570BE417F507C0F417
:101F5000F0931C03E0931B03F901918380830EC06F
:101F60000E94D60D7C01009759F0A801BE010E9485
:101F7000C70FCE010E946E0EC70104C0CE0102C081
:101F800080E090E0CDB7DEB7EEE00C94F70FFB01F8
:101F9000DC0102C001900D9241505040D8F70895E5
:101FA000FB01DC0101900D920020E1F708952F92D2
:101FB0003F924F925F926F927F928F929F92AF92D9
:101FC000BF92CF92DF92EF92FF920F931F93CF9326
:101FD000DF93CDB7DEB7CA1BDB0B0FB6F894DEBFBD
:101FE0000FBECDBF09942A88398848885F846E84E3
:101FF0007D848C849B84AA84B984C884DF80EE802D
:10200000FD800C811B81AA81B981CE0FD11D0FB635
:10201000F894DEBF0FBECDBFED01089510E0C8EC0F
:10202000D0E004C0FE010E94C30D2296CA3CD10735
:06203000C9F7F894FFCF90
:1020360000001F038000010000CDCCCC3D00000055
:102046003F2C042C0401FF4D63703235313520637B
:102056006F6E666967757265206275732073756346
:1020660063657366756C6C79004D63703235313516
:1020760020636F6E66696775726520696E74657236
:1020860072757074732073756363657366756C6CB3
:1020960079004D63703235313520636F6E6669673E
:1020A6007572652072782062756666657220737532
:1020B6006363657366756C6C790041626F72742038
:1020C60077616974696E672E204D61782E2077617D
:1020D6006974696E672074696D65207265616368ED
:1020E60065642E004D63703235313520737769741F
:1020F600636820746F206D6F6465200054727920C8
:10210600746F207265736574204D63703235313596
:10211600004D6370323531352072657365742073F6
:10212600756363657366756C6C7920616E64207384
:10213600776974636820646F206D6F64652000564C
:102146005758595A5B5C5D464748494A4B4C4D3691
:102156003738393A3B3C3D00000000E50661086728
:102166000680067206C3060D0A006E616E00696E71
:0621760066006F766600B2
:00000001FF
