:100000000C9473000C9490040C94B7040C949B0013
:100010000C949B000C949B000C949B000C949B00F4
:100020000C949B000C949B000C949B000C949B00E4
:100030000C949B000C949B000C949B000C949B00D4
:100040000C94DE040C949B000C94D2070C940408CE
:100050000C949B000C949B000C949B000C949B00B4
:100060000C949B000C949B0005A84CCDB2D44EB9C7
:100070003836A9020C50B9918688083CA6AAAA2A4B
:10008000BE000000803F00000008000201000003E5
:100090000407000000000000000001020408102016
:1000A000408001020408102001020408102004040A
:1000B0000404040404040202020202020303030310
:1000C00003030000000023002600290000000000B8
:1000D000250028002B0000000000240027002A0033
:1000E0002F043408350411241FBECFEFD8E0DEBF43
:1000F000CDBF12E0A0E0B1E0E0EAFDE102C0059072
:100100000D92AC32B107D9F722E0ACE2B2E001C007
:100110001D92A43FB207E1F710E0C4EED0E004C0A6
:100120002297FE010E94870CC03ED107C9F70E94AA
:1001300078080C94C30E0C94000082E00E946406C0
:10014000019751F483E00E94640620913A023091B5
:100150003B02892B69F409C083E00E946406209168
:100160003A0230913B02019719F42F5F3F4F02C0D2
:100170002150310930933B0220933A02089583E0E5
:100180000E946406019751F482E00E946406209167
:100190003A0230913B02019769F409C082E00E9463
:1001A000640620913A0230913B02892B19F42F5FAB
:1001B0003F4F02C02150310930933B0220933A0255
:1001C00008958EBD00000DB407FEFDCF8EB50895D5
:1001D000CF93DF93D82FC62F8AE00E942E066C2F74
:1001E0008D2FDF91CF910C942E060F931F93CF93F9
:1001F000DF93082F162FEA0160E0CA010E94E80091
:1002000082E00E94E100802F0E94E100812F0E9485
:10021000E10061E0CE010E94E80062E070E080E071
:1002200090E0DF91CF911F910F910C945705CF93E0
:10023000DF93D62FC42F48E050E0682F82E30E945E
:10024000F50048E050E06D2F81E30E94F50048E0A2
:1002500050E06C2F85E3DF91CF910C94F500CF93A4
:10026000DF93D62FC42F48E050E0682F82E40E942D
:10027000F50048E050E06D2F81E40E94F50048E071
:1002800050E06C2F85E4DF91CF910C94F500CF9373
:10029000DF93D62FC42F48E050E0682F82E50E94FC
:1002A000F50048E050E06D2F81E50E94F50048E040
:1002B00050E06C2F85E5DF91CF910C94F50048E07C
:1002C00050E063E08AE20E94F50048E050E060E917
:1002D00089E20E94F50048E050E062E088E20E9476
:1002E000F50080913002882331F061E171E083E50F
:1002F00092E00C94D208089548E050E060E08BE270
:100300000E94F50080913002882331F063E371E0B0
:1003100083E592E00C94D20808951F93CF93DF9366
:10032000182FEB0160E0CE010E94E80083E00E94FC
:10033000E100812F0E94E10080E00E94E100182F7F
:1003400061E0CE010E94E80062E070E080E090E0B1
:100350000E94570548E050E060E08CE20E94F50002
:10036000812FDF91CF911F910895CF92DF92EF926D
:10037000FF920F931F93CF93DF93062FC3E0D0E03C
:1003800048E050E0602F8FE00E94F50068E070E0E8
:100390008EE00E948D01182F0E9428056B017C01C0
:1003A00060E070E0CB01101791F06938734181056E
:1003B000910594F468E070E08EE00E948D01182FA2
:1003C0000E9428056C197D098E099F09ECCF6938B8
:1003D00073418105910564F080913002882331F0EA
:1003E00064E871E083E592E00E94D208219741F62B
:1003F00080913002882331F06EEA71E083E592E06B
:100400000E94C50880913002882339F04AE050E00C
:10041000612F83E592E00E94A20980913002882337
:1004200071F067E771E083E592E0DF91CF911F9172
:100430000F91FF90EF90DF90CF900C94D208DF9156
:10044000CF911F910F91FF90EF90DF90CF90089583
:100450001F93CF93DF93182FEB0160E0CE010E9432
:10046000E800812F0E94E10061E0CE010E94E800D7
:1004700062E070E080E090E0DF91CF911F910C94FA
:100480005705CF9368E070E080EC0E94280268E096
:1004900070E08EE00E948D01C82F87FFF8CF809119
:1004A0003002882331F066EC71E083E592E00E942F
:1004B000C50880913002882341F04AE050E06C2F5B
:1004C00083E592E0CF910C94A909CF9108950E9401
:1004D00041020E945F010E947C0160E080E00C9478
:1004E000B50126E040E855E260E070E083E592E087
:1004F0000E9470071092300261E087E00E94F505CB
:1005000061E088E00E94F50561E08AE00E94F5055F
:1005100060E082E00E94F50560E083E00E94F5055E
:1005200061E084E00E94F50561E087E00E942E060C
:1005300061E088E00E942E0661E08AE00E942E06BB
:1005400080914802882399F09FB7F89480914802DF
:10055000813059F48DB3809346022DB380914702C8
:10056000809582238DBB9FBF02C0909346028CE58D
:100570008CBD1DBC0E9439040E94670247E062E006
:1005800080E40E94170147E062E080E40E942F01AE
:1005900047E062E080E40E9447010E9428056093E2
:1005A0002C0270932D0280932E0290932F0241E033
:1005B00050E06DE970E080E00E94700441E050E09E
:1005C0006FEB70E081E00E94700464E670E080E010
:1005D00090E00C9457058130910539F082309105F7
:1005E00031F0892B29F421E803C022E801C024E876
:1005F00068E070E0822F0C9428020F931F93CF9332
:10060000DF939B0160910601662379F0F901EC5FAD
:10061000FD4F9081415051092417350759F510922B
:10062000060121E02093070125C0609107016623A0
:1006300079F0F901E450FE4F90814150510924179F
:100640003507C1F41092070121E02093080112C080
:1006500060910801662371F0F901EC50FE4F908122
:10066000415051092417350729F41092080121E05F
:100670002093060148E050E0682F892F0E94F50082
:1006800006E011E0C0E0D0E0F80181918F018823FD
:1006900019F0CE010E94EB022196C330D105A1F7DB
:1006A000DF91CF911F910F9108954F925F926F92BA
:1006B0007F92AF92BF92CF92DF92EF92FF920F9311
:1006C0001F93CF93DF93C0904202D0904302E090FB
:1006D0004402F0904502A12CB12CC1E0D0E001E031
:1006E00010E0BE0180E090E00E94DB0AA7019601C5
:1006F0000E94690B0E94CC0B2B013C01C801BE017A
:100700000E944F0C80E090E00E94DB0AA30192015E
:100710000E94690B2B013C01B501882777FD80956C
:10072000982F0E94DD0A9B01AC01C301B2010E9417
:10073000460A0E94AA0A2196C33FD10511F05B0127
:10074000D0CF70933902609338024AE050E083E5DD
:1007500092E00E947D09809138029091390297FFC2
:1007600012C01092330261E084E00E942E06809154
:1007700038029091390291958195910990933902AF
:100780008093380207C081E08093330260E084E008
:100790000E942E0690913802809139029093310286
:1007A0008093320280913A0290913B0297FF0AC0F7
:1007B0001092360291958195910990933B02809316
:1007C0003A0203C081E08093360290913A02809110
:1007D0003B02909334028093350281E0809337028C
:1007E00001E312E0C0E0D0E047E050E0BE01F801D4
:1007F00081918F010E94FD022196C730D105A1F79A
:100800006AE070E080E090E00E94570520910901C5
:1008100030910A0140910B0150910C01609142020C
:100820007091430280914402909145020E94460AD1
:100830006093420270934302809344029093450276
:10084000DF91CF911F910F91FF90EF90DF90CF90AC
:10085000BF90AF907F906F905F904F9008956EE142
:1008600072E08CE392E00C942E0A8CE392E00C94FC
:10087000C009CF93CFB7F89480914902811127C066
:10088000E8EBF0E08491E4EAF0E09491E82FF0E006
:10089000EE0FFF1FEA52FF4FA591B4918C9189236F
:1008A00021F461E08AE00E942E0661E08AE00E9465
:1008B000F5058CB580618CBD8CB580648CBD61E024
:1008C0008DE00E94F50561E08BE00E94F5058091C6
:1008D00049028F5F80934902CFBFCF910895089559
:1008E0008230E8F4E82FF0E0EE0FFF1FE35FFE4FE9
:1008F00071836083813041F0809169008C7F842B0B
:1009000080936900E89A089580916900440F551F0B
:10091000440F551F837F842B80936900E99A0895C3
:100920001F920F920FB60F9211242F933F934F9364
:100930005F936F937F938F939F93AF93BF93EF9347
:10094000FF93E0910D01F0910E010995FF91EF9158
:10095000BF91AF919F918F917F916F915F914F91D7
:100960003F912F910F900FBE0F901F9018951F92DF
:100970000F920FB60F9211242F933F934F935F93D3
:100980006F937F938F939F93AF93BF93EF93FF9357
:10099000E0910F01F09110010995FF91EF91BF9146
:1009A000AF919F918F917F916F915F914F913F9107
:1009B0002F910F900FBE0F901F9018951F920F92BE
:1009C0000FB60F9211242F933F938F939F93AF9362
:1009D000BF9380914B0290914C02A0914D02B09137
:1009E0004E0230914A0223E0230F2D3720F4019666
:1009F000A11DB11D05C026E8230F0296A11DB11D42
:100A000020934A0280934B0290934C02A0934D0294
:100A1000B0934E0280914F0290915002A0915102EA
:100A2000B09152020196A11DB11D80934F02909387
:100A30005002A0935102B0935202BF91AF919F9187
:100A40008F913F912F910F900FBE0F901F9018958F
:100A50002FB7F89460914B0270914C0280914D0237
:100A600090914E022FBF08953FB7F89480914F02A6
:100A700090915002A0915102B091520226B5A89BCC
:100A800005C02F3F19F00196A11DB11D3FBF66277C
:100A9000782F892F9A2F620F711D811D911D42E0C1
:100AA000660F771F881F991F4A95D1F708958F9277
:100AB0009F92AF92BF92CF92DF92EF92FF926B0123
:100AC0007C010E9434054B015C01C114D104E10496
:100AD000F104F1F00E94440A0E9434056819790972
:100AE0008A099B09683E73408105910570F321E0F6
:100AF000C21AD108E108F10888EE880E83E0981E3A
:100B0000A11CB11CC114D104E104F10429F7DDCF0B
:100B1000FF90EF90DF90CF90BF90AF909F908F901D
:100B20000895789484B5826084BD84B5816084BD65
:100B300085B5826085BD85B5816085BDEEE6F0E056
:100B4000808181608083E1E8F0E0108280818260B2
:100B50008083808181608083E0E8F0E08081816033
:100B60008083E1EBF0E0808184608083E0EBF0E063
:100B7000808181608083EAE7F0E080818460808307
:100B800080818260808380818160808380818068B1
:100B900080831092C1000895833081F028F4813061
:100BA00099F08230A1F008958730A9F08830B9F02B
:100BB0008430D1F4809180008F7D03C080918000CB
:100BC0008F7780938000089584B58F7702C084B5B5
:100BD0008F7D84BD08958091B0008F7703C0809190
:100BE000B0008F7D8093B0000895CF93DF9390E0A5
:100BF000FC01E656FF4F2491FC01E255FF4F849122
:100C0000882349F190E0880F991FFC01EA52FF4FB9
:100C1000A591B49184539F4FFC01C591D4919FB786
:100C2000611108C0F8948C91209582238C9388815F
:100C300082230AC0623051F4F8948C91322F30959F
:100C400083238C938881822B888304C0F8948C91B1
:100C5000822B8C939FBFDF91CF9108950F931F93A9
:100C6000CF93DF931F92CDB7DEB7282F30E0F90185
:100C7000EA57FF4F8491F901E656FF4F1491F901AD
:100C8000E255FF4F04910023C9F0882321F06983C6
:100C90000E94CC056981E02FF0E0EE0FFF1FE453C6
:100CA000FF4FA591B4919FB7F8948C91611103C047
:100CB0001095812301C0812B8C939FBF0F90DF91F2
:100CC000CF911F910F910895CF93DF93282F30E09C
:100CD000F901EA57FF4F8491F901E656FF4FD4918D
:100CE000F901E255FF4FC491CC2391F081110E948C
:100CF000CC05EC2FF0E0EE0FFF1FEE53FF4FA59158
:100D0000B4912C912D2381E090E021F480E002C089
:100D100080E090E0DF91CF910895FC01818D228DDC
:100D200090E0805C9F4F821B91098F7399270895F3
:100D3000FC01918D828D981731F0828DE80FF11DA5
:100D4000858D90E008958FEF9FEF0895FC01918DC0
:100D5000828D981761F0828DDF01A80FB11D5D961D
:100D60008C91928D9F5F9F73928F90E008958FEF8B
:100D70009FEF08958AE298E0892B49F080E090E0A7
:100D8000892B29F00E942A0881110C9400000895F3
:100D9000FC01848DDF01A80FB11DA35ABF4F2C9118
:100DA000848D90E001968F739927848FA689B789E7
:100DB0002C93A089B1898C9180648C93938D848DC0
:100DC000981306C00288F389E02D80818F7D80838F
:100DD0000895CF93DF93EC01888D8823C9F0EA89C9
:100DE000FB89808185FD05C0A889B9898C9186FD24
:100DF0000FC00FB607FCF5CF808185FFF2CFA88921
:100E0000B9898C9185FFEDCFCE010E94C806E7CF4E
:100E1000DF91CF910895CF92DF92FF920F931F93AE
:100E2000CF93DF931F92CDB7DEB76C0181E0D6017F
:100E300058968C9358975B969C915B975C968C9197
:100E40005C97981307C05096ED91FC915197808163
:100E500085FD2EC0F601038D10E00F5F1F4F0F734D
:100E60001127F02EF601848DF81211C00FB607FC81
:100E7000F9CFD6015096ED91FC915197808185FF75
:100E8000F1CFC60169830E94C8066981EBCF838DCB
:100E9000E80FF11DE35AFF4F6083D6015B960C9378
:100EA0005B975296ED91FC915397808180620CC0C4
:100EB000D6015696ED91FC91579760835096ED912F
:100EC000FC91519780818064808381E090E00F9055
:100ED000DF91CF911F910F91FF90DF90CF900895F8
:100EE000BF92CF92DF92EF92FF92CF93DF93EC010C
:100EF0006A017B01B22EE889F98982E0808341157D
:100F000081EE580761057105A1F060E079E08DE39D
:100F100090E0A70196010E94630C2150310941091C
:100F200051095695479537952795211580E1380742
:100F300098F0E889F989108260E874E88EE190E021
:100F4000A70196010E94630C215031094109510902
:100F50005695479537952795EC85FD853083EE8529
:100F6000FF852083188EEC89FD89B082EA89FB8990
:100F7000808180618083EA89FB89808188608083A9
:100F8000EA89FB89808180688083EA89FB89808186
:100F90008F7D8083DF91CF91FF90EF90DF90CF9096
:100FA000BF9008951F920F920FB60F9211242F93A6
:100FB0008F939F93EF93FF93E0916302F09164020C
:100FC0008081E0916902F0916A0282FD12C09081F5
:100FD00080916C028F5F8F7320916D02821751F0A8
:100FE000E0916C02F0E0ED5AFD4F958F80936C021A
:100FF00001C08081FF91EF919F918F912F910F9070
:101000000FBE0F901F9018951F920F920FB60F9260
:1010100011242F933F934F935F936F937F938F93FD
:101020009F93AF93BF93EF93FF9383E592E00E946A
:10103000C806FF91EF91BF91AF919F918F917F91E2
:101040006F915F914F913F912F910F900FBE0F9035
:101050001F90189583E592E00E948D0621E0892B70
:1010600009F420E0822F0895109256021092550242
:1010700088EE93E0A0E0B0E080935702909358028E
:10108000A0935902B0935A0280E192E090935402E7
:101090008093530285EC90E09093600280935F020E
:1010A00084EC90E0909362028093610280EC90E087
:1010B000909364028093630281EC90E090936602C7
:1010C0008093650282EC90E09093680280936702BF
:1010D00086EC90E090936A028093690210926C0211
:1010E00010926D0210926E0210926F020895089590
:1010F0000E9491050E9477080E947102CAEBD6E017
:101100000E9455032097E1F30E94BA06F9CFCF92CF
:10111000DF92EF92FF920F931F93CF93DF937C01A7
:101120006A01EB0100E010E00C151D0571F06991FA
:10113000D701ED91FC910190F081E02DC701099557
:10114000892B19F00F5F1F4FEFCFC801DF91CF91AF
:101150001F910F91FF90EF90DF90CF900895611550
:10116000710581F0DB010D900020E9F7AD014150E0
:101170005109461B570BDC01ED91FC910280F38174
:10118000E02D099480E090E008950C94AF08DC0114
:10119000ED91FC910190F081E02D09946CE172E0F9
:1011A0000C94AF080F931F93CF93DF93EC010E9431
:1011B000AF088C01CE010E94CE08800F911FDF91F5
:1011C000CF911F910F9108958F929F92AF92BF92EE
:1011D000DF92EF92FF920F931F93CF93DF93CDB7E0
:1011E000DEB7A1970FB6F894DEBF0FBECDBF7C016E
:1011F000F42FD52ECB0119A2223008F42AE08E015B
:101200000F5D1F4F822E912CA12CB12C6F2F7D2DA5
:10121000A50194010E94630CF22FD32ECA01015044
:1012200011096A3014F4E0E301C0E7E3E60FD801E6
:10123000EC93232B242B252B49F7B801C7010E94DF
:10124000AF08A1960FB6F894DEBF0FBECDBFDF91F9
:10125000CF911F910F91FF90EF90DF90BF90AF90D3
:101260009F908F900895CF92DF92EF92FF920F930D
:101270001F93CF93DF93EC016A017B0121153105A8
:1012800079F4E881F9810190F081E02D642FDF91FC
:10129000CF911F910F91FF90EF90DF90CF90099425
:1012A0002A303105E9F477FF1AC06DE20E94C708C1
:1012B0008C0144275527BA014C195D096E097F0935
:1012C0002AE0CE010E94E408800F911FDF91CF91A8
:1012D0001F910F91FF90EF90DF90CF9008952AE03B
:1012E000B701A601CE01DF91CF911F910F91FF9021
:1012F000EF90DF90CF900C94E4080F931F93CF935F
:10130000DF93EC019A01AB01662757FD6095762FBC
:101310000E9433098C01CE010E94CE08800F911FDC
:10132000DF91CF911F910F9108952115310541F45F
:10133000DC01ED91FC910190F081E02D642F099486
:101340000C94E4089A01462F50E060E070E00C94A1
:1013500095090F931F93CF93DF93EC019A01462FCA
:1013600050E060E070E00E9495098C01CE010E947F
:10137000CE08800F911FDF91CF911F910F9108959B
:10138000FC01808191810C94230DCF93DF93EC01BC
:1013900088819981009711F00E94230D198218828B
:1013A0001D821C821B821A82DF91CF9108950F93B8
:1013B0001F93CF93DF93EC018B016F5F7F4F888189
:1013C00099810E94B20D009731F0998388831B8325
:1013D0000A8381E001C080E0DF91CF911F910F91DE
:1013E0000895CF93DF93EC0188819981892B29F0AF
:1013F0008A819B818617970760F4CE010E94D709E6
:10140000882341F08C819D81892B19F4E881F98131
:10141000108281E0DF91CF910895EF92FF920F93B8
:101420001F93CF93DF93EC017B018A01BA010E94E5
:10143000F109811104C0CE010E94C50907C01D83B6
:101440000C83B701888199810E94850ECE01DF91BE
:10145000CF911F910F91FF90EF900895FC011182A1
:10146000108213821282158214826115710559F05F
:10147000FB0101900020E9F7AF0141505109461BE3
:10148000570B0C940D0A089508955058BB27AA27AE
:101490000ED0E5C0D6D030F0DBD020F031F49F3F45
:1014A00011F41EF4CBC00EF4E095E7FBC1C0E92FA8
:1014B000E7D080F3BA17620773078407950718F01F
:1014C00071F49EF5FFC00EF4E0950B2EBA2FA02DFF
:1014D0000B01B90190010C01CA01A0011124FF27E1
:1014E000591B99F0593F50F4503E68F11A16F040DC
:1014F000A22F232F342F4427585FF3CF46953795DB
:101500002795A795F0405395C9F77EF41F16BA0B9F
:10151000620B730B840BBAF09150A1F0FF0FBB1F4D
:10152000661F771F881FC2F70EC0BA0F621F731F96
:10153000841F48F4879577956795B795F7959E3FF3
:1015400008F0B3CF9395880F08F09927EE0F979581
:101550008795089504D06894B111B5C0089598D0C6
:1015600088F09F5790F0B92F9927B751A0F0D1F08C
:10157000660F771F881F991F1AF0BA95C9F712C016
:10158000B13081F09FD0B1E008959CC0672F782FD3
:101590008827B85F39F0B93FCCF386957795679582
:1015A000B395D9F73EF490958095709561957F4FEE
:1015B0008F4F9F4F0895E89409C097FB3EF4909594
:1015C0008095709561957F4F8F4F9F4F9923A9F01C
:1015D000F92F96E9BB279395F695879577956795AB
:1015E000B795F111F8CFFAF4BB0F11F460FF1BC0EF
:1015F0006F5F7F4F8F4F9F4F16C0882311F096E982
:1016000011C0772321F09EE8872F762F05C066232F
:1016100071F096E8862F70E060E02AF09A95660FE8
:10162000771F881FDAF7880F9695879597F90895A1
:1016300097F99F6780E870E060E008959FEF80EC85
:10164000089500240A941616170618060906089528
:1016500000240A9412161306140605060895092E8E
:101660000394000C11F4882352F0BB0F40F4BF2BFD
:1016700011F460FF04C06F5F7F4F8F4F9F4F08953D
:1016800057FD9058440F551F59F05F3F71F0479533
:10169000880F97FB991F61F09F3F79F08795089518
:1016A000121613061406551FF2CF4695F1DF08C037
:1016B000161617061806991FF1CF86957105610554
:1016C00008940895E894BB2766277727CB0197F9FC
:1016D00008950BD0C4CFB5DF28F0BADF18F09523FA
:1016E00009F0A6CFABCF1124EECFCADFA0F3959FB0
:1016F000D1F3950F50E0551F629FF001729FBB27F9
:10170000F00DB11D639FAA27F00DB11DAA1F649FA4
:101710006627B00DA11D661F829F2227B00DA11D57
:10172000621F739FB00DA11D621F839FA00D611DDD
:10173000221F749F3327A00D611D231F849F600DFE
:10174000211D822F762F6A2F11249F5750408AF037
:10175000E1F088234AF0EE0FFF1FBB1F661F771FC3
:10176000881F91505040A9F79E3F510570F060CFFF
:10177000AACF5F3FECF3983EDCF3869577956795AB
:10178000B795F795E7959F5FC1F7FE2B880F911DE1
:101790009695879597F908959F9305D00F9007FC2C
:1017A000EE5F28C04BCF74DFE8F3E894E0E0BB279E
:1017B0009F57F0F02AED3FE049EC06C0EE0FBB0F5B
:1017C000661F771F881F28F0B23A620773078407E5
:1017D00028F0B25A620B730B840BE3959A9572F75B
:1017E000803830F49A95BB0F661F771F881FD2F799
:1017F000904813C0EF93E0FF06C0A2EA2AED3FE055
:1018000049EC5FEB54DE2BDF0F90039401FC905802
:10181000E8E6F0E00EC09F3F31F0915020F487954C
:1018200077956795B795880F911D9695879597F948
:1018300008959F938F937F936F93FF93EF939B01F3
:10184000AC0147DFEF91FF9105D02F913F914F9170
:101850005F913FCFDF93CF931F930F93FF92EF9250
:10186000DF927B018C01689405C0DA2EEF013DDF29
:10187000FE01E894A5912591359145915591AEF3DE
:10188000EF0115DEFE019701A801DA9479F7DF90E8
:10189000EF90FF900F911F91CF91DF910895AA1BB8
:1018A000BB1B51E107C0AA1FBB1FA617B70710F04B
:1018B000A61BB70B881F991F5A95A9F7809590957D
:1018C000BC01CD010895A1E21A2EAA1BBB1BFD018C
:1018D0000DC0AA1FBB1FEE1FFF1FA217B307E4070F
:1018E000F50720F0A21BB30BE40BF50B661F771F67
:1018F000881F991F1A9469F7609570958095909547
:101900009B01AC01BD01CF010895EE0FFF1F0590B3
:10191000F491E02D0994CF93DF938230910510F478
:1019200082E090E0E091F202F091F30220E030E0FA
:10193000A0E0B0E0309739F1408151814817590754
:10194000B8F04817590771F482819381109729F0F4
:1019500013969C938E9312972CC09093F3028093CE
:10196000F20227C02115310531F04217530718F054
:10197000A901DB0101C0EF019A01BD01DF01028075
:10198000F381E02DD7CF21153105F9F0281B390B54
:101990002430310580F48A819B816115710521F025
:1019A000FB019383828304C09093F3028093F2023D
:1019B000FE01329644C0FE01E20FF31F8193919322
:1019C00022503109398328833AC02091F0023091A6
:1019D000F102232B41F42091020130910301309355
:1019E000F1022093F00220910001309101012115B4
:1019F000310541F42DB73EB74091040150910501E6
:101A0000241B350BE091F002F091F102E217F3078D
:101A1000A0F42E1B3F0B2817390778F0AC014E5F5E
:101A20005F4F2417350748F04E0F5F1F5093F102A8
:101A30004093F0028193919302C0E0E0F0E0CF0187
:101A4000DF91CF910895CF93DF93009709F487C07A
:101A5000FC01329713821282C091F202D091F302FC
:101A6000209781F420813181280F391F8091F00265
:101A70009091F1028217930779F5F093F102E093C8
:101A8000F0026DC0DE0120E030E0AE17BF0750F479
:101A900012964D915C9113979D014115510509F1E5
:101AA000DA01F3CFB383A28340815181840F951F64
:101AB0008A179B0771F48D919C911197840F951F44
:101AC00002969183808312968D919C9113979383B4
:101AD00082832115310529F4F093F302E093F20299
:101AE0003EC0D9011396FC93EE9312974D915D91F0
:101AF000A40FB51FEA17FB0779F480819181840F49
:101B0000951F0296D90111969C938E9382819381A1
:101B100013969C938E931297E0E0F0E08A819B816C
:101B2000009719F0FE01EC01F9CFCE010296288151
:101B30003981820F931F2091F0023091F102281712
:101B4000390769F4309729F41092F3021092F202E7
:101B500002C013821282D093F102C093F002DF918F
:101B6000CF910895A0E0B0E0E8EBFDE00C94900E7A
:101B7000EC01CB01209719F40E948B0CB8C0FE0138
:101B8000E60FF71F9E0122503109E217F30708F410
:101B9000ACC0D9010D911C91119706171707B8F029
:101BA0000530110508F49FC0A8014450510946179B
:101BB000570708F498C002501109061B170B019330
:101BC00011936D937C93CF010E94230D8CC05B0118
:101BD000A01AB10A4E01800E911EA091F202B0919E
:101BE000F302612C712C60E070E0109709F449C099
:101BF000A815B905C9F5ED90FC901197670142E071
:101C0000C40ED11CCA14DB0478F147018A189B0862
:101C1000640142E0C40ED11C1296BC901297139638
:101C2000AC91B5E0CB16D10440F0B282A38391828F
:101C30008082D9018D939C9309C00E5F1F4F0E0DBA
:101C40001F1DF90111830083EB2DFA2F611571051A
:101C500031F0DB011396FC93EE93129744C0F0939E
:101C6000F302E093F2023FC06D917C9111976616EA
:101C7000770608F43B01BD0112960D90BC91A02D92
:101C8000B4CF6091F0027091F10268157905E9F422
:101C900068167906D0F44091000150910101411578
:101CA000510541F44DB75EB7609104017091050193
:101CB000461B570BE417F507C0F4F093F102E093CD
:101CC000F002F901918380830EC00E948B0C7C018D
:101CD000009759F0A801BE010E947C0ECE010E941F
:101CE000230DC70104C0CE0102C080E090E0CDB753
:101CF000DEB7EEE00C94AC0EFB01DC0102C00190FB
:101D00000D9241505040D8F70895FB01DC0101903D
:101D10000D920020E1F708952F923F924F925F922B
:101D20006F927F928F929F92AF92BF92CF92DF92EB
:101D3000EF92FF920F931F93CF93DF93CDB7DEB750
:101D4000CA1BDB0B0FB6F894DEBF0FBECDBF0994E4
:101D50002A88398848885F846E847D848C849B843B
:101D6000AA84B984C884DF80EE80FD800C811B8149
:101D7000AA81B981CE0FD11D0FB6F894DEBF0FBE78
:101D8000CDBFED01089510E0C4EED0E004C0FE0127
:101D90000E94870C2296C63ED107C9F7F894FFCF60
:101DA0000000F40280000100000AD7233C6F046F9A
:101DB000044D63703235313520636F6E6669677527
:101DC0007265206275732073756363657366756CE5
:101DD0006C79004D63703235313520636F6E666902
:101DE0006775726520696E746572727570747320A0
:101DF00073756363657366756C6C79004D637032DF
:101E000035313520636F6E6669677572652072784B
:101E100020627566666572207375636365736675A7
:101E20006C6C790041626F72742077616974696EBD
:101E3000672E204D61782E2077616974696E672066
:101E400074696D6520726561636865642E004D6319
:101E500070323531352073776974636820746F2070
:101E60006D6F646520004D637032353135207265C9
:101E70007365742073756363657366756C6C792024
:101E8000616E642073776974636820646F206D6F7E
:101E900064652000565758595A5B5C5D464748496F
:101EA0004A4B4C4D363738393A3B3C3D0000000038
:101EB0000B0787088D06A6069806E9060D0A006E30
:0C1EC000616E00696E66006F76660000BF
:00000001FF
